:100FE600526573756C743A204B6579204368616E5F
:100FF600676564205375636365737366756C6C7996
:101006000D0077656C636F6D650D00496E707574C4
:101016003A00526573756C743A00706C656173655D
:1010260020656E746572205345544B4559206F7286
:1010360020454E4352595054206F72204445435226
:101046005950540D00636865636B2076616C756555
:0D1056007320746F206265206865780D00BE
:101371001213827BFF7A10790812134D12075680DF
:01138100FB70
:06075600E57524EAF575CB
:10075C007BFF7A10791112134D12128BA875A60318
:10076C0008A60208A601A875860308E6FA08E6F9A9
:10077C001212D8EF24FE60741470030208A624022F
:10078C006003020952A875860308E6FA08E62407F6
:10079C00F9E43AFAE5752403F8A60308A60208A6BC
:1007AC0001E5752403F8860308E6FA08E6F9121049
:1007BC00DDEF602FE5752403F8860308E6FA08E6FA
:1007CC00F9157515751575A875A60308A60208A662
:1007DC00017B007A007965120EA57BFF7A0F79E612
:1007EC000209587BFF7A10794B020958A8758603C9
:1007FC0008E6FA08E62408F9E43AFAE5752403F861
:10080C00A60308A60208A601E5752403F8860308CA
:10081C00E6FA08E6F91210DDEF64017074E5752450
:10082C0003F8860308E6FA08E6F9157515751575CB
:10083C00A875A60308A60208A6017B00E57524117D
:10084C00F97A00120EA5157515751575A875760033
:10085C00087600087665E5752411157515751575FE
:10086C00A875760008760008F67B00E575240CF96F
:10087C007A001202FD7BFF7A10791812134D7B005F
:10088C00E5752406F97A007D087C00120DE1020959
:10089C00587BFF7A10794B020958A875860308E635
:1008AC00FA08E62408F9E43AFAE5752403F8A603F5
:1008BC0008A60208A601E5752403F8860308E6FAE3
:1008CC0008E6F91210DDEF64017073E5752403F886
:1008DC00860308E6FA08E6F9157515751575A875F9
:1008EC00A60308A60208A6017B00E5752411F97A77
:1008FC0000120EA5157515751575A8757600087678
:10090C0000087665E5752411157515751575A875AE
:10091C00760008760008F67B00E575240CF97A0061
:10092C0012052A7BFF7A10791812134D7B00E5759E
:10093C002406F97A007D087C00120DE1800E7BFF05
:0F094C007A10794B80067BFF7A10792012134DB9
:07095B00E5752416F5752275
:10000300E4D12FB83A6C59070F74E2D1A6CB9538D7
:1000130041E8D62BFC973A50FC8249175B3EA06D12
:10002300F18E6B34972DC05A3D47F28EC01A69B5D5
:100033000E7BA4D158C6932FD8A13F42B67C05E9C5
:10004300A09E63F51DC7B428D709346A285ECBF197
:10005300D6498F30B12C5AE71AD069874FE3B52CB4
:100063007DE3069A1285BC4FD8B56F03472C1AE976
:10007300A690CB7DF13E52843F06A1D8945BC72E58
:100083002C417AB6853FD0E9EB2C47D150FA39861B
:10009300421BAD78F9C5630EB8C71E2D6F09A45373
:1000A300C1AF92680D34E75BAF427C9561DE0B38DC
:1000B3009EF528C3704A1DB6432C95FABE17608D72
:1000C3004B2EF08D3C975A61D0B7491AE35C2F86CB
:1000D30014BDC37EAF6805926BD814A7950FE23C9D
:1000E300D2846FB1A93E50C71FD8A374C56B0E92BB
:1000F3007B419CE206ADF35821E74A8DFC90356BBA
:10010300040620010203040504050607080908097B
:100113000A0B0C0D0C0D0E0F1011101112131415E8
:1001230014151617181918191A1B1C1D1C1D1E1F30
:1001330020010404100714151D0C1C11010F171ABC
:1001430005121F0A0208180E201B0309130D1E06B1
:10015300160B041908083A322A221A120A023C34EE
:100163002C241C140C043E362E261E160E06403874
:1001730030282018100839312921191109013B337E
:100183002B231B130B033D352D251D150D053F3764
:100193002F271F170F07080828083010381840208A
:1001A30027072F0F37173F1F26062E0E36163E1E24
:1001B30025052D0D35153D1D24042C0C34143C1C34
:1001C30023032B0B33133B1B22022A0A32123A1A44
:1001D3002101290931113919080739312921191147
:1001E30009013A322A221A120A023B332B231B1328
:1001F3000B033C342C243F372F271F170F073E36A2
:100203002E261E160E063D352D251D150D051C1417
:100213000C0407060E110B180105031C0F06150A23
:1002230017130C041A0810071B140D0229341F2579
:100233002F371E28332D21302C31273822352E2AF3
:1002430032241D20080840400106020304054040F3
:10025300070C08090A0B40400D120E0F1011404005
:100263001318141516174040191E1A1B1C1D404065
:100273001F24202122234040252A262728294040C5
:100283002B302C2D2E2F0707020304050607080920
:100293000A0B0C0D0E0F1011121314151617181943
:1002A3001A1B1C011E1F202122232425262728294F
:1002B3002A2B2C2D2E2F3031323334353637381D3F
:1002C30007071C0102030405060708090A0B0C0DA6
:1002D3000E0F101112131415161718191A1B381DA7
:1002E3001E1F202122232425262728292A2B2C2DB3
:0A02F3002E2F303132333435363708
:100C9E00A975157515751575A87576000876000871
:100CAE00A601E5752409157515751575A8757600D7
:0B0CBE0008760008F67BFF7A0279152B
:100CC900157515751575A875A60308A60208A60158
:060CD900E57524FBF57532
:100CDF002405F8860308E6FA08E6F9900001120ADF
:100CEF0071A875F6E92402F9E43AFAE5752405F8D6
:100CFF00A60308A60208A601A87508E4F6A975A818
:0A0D0F007508E6C3974003020DDAF1
:100D1900E5752404F8E4F6A8750808F6A875080826
:100D2900E6C394084003020DB2E5752405F886036D
:100D3900080806E618860270010614F9120A581402
:100D4900FFE5752403F8A607E5752404F8C000E655
:100D590025E0D000F6E5752403F8E6FF13131354D4
:100D69001FFEE5752408F8860308E6FA08E6F98EF9
:100D790082758300120A71FD7C00EF5407FF7480AD
:100D89007E00A807088006CEA2E713CE13D8F8FF85
:100D9900EE5CFEEF5D4E6009E5752404F8740146CA
:100DA900F6A875080806020D25E5752404F8E6FF7E
:100DB900E575240BF8860308E6FA08E6F9A875082C
:0A0DC900E6F582758300EF120AB010
:070DD300A8750806020D0CD3
:070DDA00E575240EF57522FA
:091156007B00E5752406F97A001E
:10115F00157515751575A875A60308A60208A601BD
:06116F00E57524F9F57599
:101175002407F8860308E6FA08E6F9A8757C007DD9
:10118500007E007F07120A32E5752407F8860308FA
:10119500E6FA08E6F9157515751575A875A6030817
:1011A500A60208A601E5752403157515751575A81C
:1011B50075760008760008F67BFF7A027989120CAD
:0111C500C960
:0711C600E575240AF575220E
:0C106300120AFE7B00E5752406F97A00F5
:10106F00157515751575A875A60308A60208A601AE
:06107F00E57524F9F5758A
:101085002407F8860308E6FA08E6F9A8757C007DCA
:10109500007E007F07120A32E5752407F8860308EB
:1010A500E6FA08E6F9157515751575A875A6030808
:1010B500A60208A601E5752403157515751575A80D
:1010C50075760008760008F67BFF7A0279C3120C64
:0110D500C951
:0710D600E575240AF57522FF
:1011CD00157515751575A875A60308A60208A6014F
:0611DD00E57524F8F5752C
:1011E3002408F8860308E6FA08E6F9A8757C007D6A
:1011F300007E007F08120A32E5752408F88603088A
:10120300E6FA08E6F9157515751575A875A60308A8
:10121300A60208A601E5752403157515751575A8AD
:1012230075760008760008F67BFF7A027947120C80
:01123300C9F1
:07123400E575240BF575229E
:10123B00157515751575A875A60308A60208A601E0
:08124B001575A875A6071575BD
:10125300A87508E6FFC313FEA8750808860308E609
:10126300FA08E6F98E82758300120A71A875F6EF03
:10127300A87530E003E68002E6C4540FFFA875EFBB
:01128300F674
:07128400E5752405F5752254
:100B2300157515751575A875A60308A60208A601FF
:100B3300E57524FCF575F8120AFEE57524EBF575E9
:100B4300F808120B0A00000000E575240915751555
:100B5300751575A875760008760008F6E5752418EE
:100B6300157515751575A875760008760008F67B5A
:100B7300FF7A017903120CC9A875E4F6A875E6C3D8
:100B83009407503CE6FFFD7B00E57524092DF9E44D
:100B930033FAC003C002C001120A58FEE5752419D6
:100BA300F8860308E6FA08E6F98F82758300120ACD
:100BB300716ED001D002D003120A9EA8750680BCC4
:100BC3007B00E5752409F97A001211CDE57524112E
:100BD300F876FF087600087603A875E4F6A875E6AC
:050BE300C394085078E6
:100BE800E5752411F8860308E6FA08E6F9C003C09B
:100BF80002C001A875E6FF7B00E57524092FF9E41A
:100C080033FA120A58FFD001D002D00312123BE582
:100C1800752414F8A607A87508C000120AE5780418
:100C2800120AD2D000120AFEA87508C000120AE5FE
:100C3800C007E5752414F8E6FBD007EF4BFFECD0AE
:100C480000120AFEE5752411F80808742026F61823
:030C5800E436F689
:100C5B00A875068080E5752405157515751575A89D
:100C6B0075760008760008F6E5752404157515757C
:100C7B001575A875760008760008F67BFF7A017962
:0C0C8B0035120CC9E5752405F8120AE5C5
:070C9700E575241CF5752230
:1002FD00157515751575A875A60308A60208A6012E
:06030D00E57524EAF57518
:10031300240E157515751575A875760008760008F1
:10032300F6E575241CF8860308E6FA08E6F9157560
:1003330015751575A875A60308A60208A6017BFF07
:100343007A017957120CC9E57524061575157515CB
:1003530075A875760008760008F6E575241FF886FB
:100363000308E6FA08E6F9157515751575A875A657
:100373000308A60208A6017BFF7A0179DB120CC9E8
:10038300E575240DF8E4F6E575240DF8E6C3940845
:100393004003020481121156E575240DF8E6FF644B
:1003A300016018EF64026013EF6403600EEF6405ED
:1003B3006009EF64066004EFB40703121156120CD0
:1003C3009EE575240EF8C000120AE5C004C005C0FE
:1003D30006C0077B00A9757A00E5752412F8120A96
:1003E300E5120B23A804A905AA06AB07D007D0067C
:1003F300D005D004EF6BFFEE6AFEED69FDEC68FCFF
:10040300D000120AFE121156E575240DF8E6FF64BA
:10041300016018EF64026013EF6403600EEF64047D
:100423006009EF64056004EFB40603121156120C61
:100433009EE5752412F8C000120AE5C004C005C089
:1004430006C0077B00A9757A00E575240EF8120A29
:10045300E5120B23A804A905AA06AB07D007D0060B
:10046300D005D004EF6BFFEE6AFEED69FDEC68FC8E
:10047300D000120AFEE575240DF80602038AE5751D
:100483002412F8C000120AE5E575240EF8120AF1E9
:10049300EF6BFFEE6AFEED69FDEC68FCD000120A1B
:1004A300FEE575240EF8C000120AE5E5752412F87E
:1004B300120AF1EF6BFFEE6AFEED69FDEC68FCD00A
:1004C30000120AFEE5752412F8C000120AE5E5756C
:1004D300240EF8120AF1EF6BFFEE6AFEED69FDECF4
:1004E30068FCD000120AFEE5752416F8860308E6B8
:1004F300FA08E6F9157515751575A875A60308A606
:100503000208A601E5752411157515751575A875ED
:10051300760008760008F67BFF7A017999120CC9F8
:07052300E575241FF57522A8
:10052A00157515751575A875A60308A60208A601FE
:06053A00E57524EAF575E9
:10054000240D157515751575A875760008760008C3
:10055000F6E575241CF8860308E6FA08E6F9157531
:1005600015751575A875A60308A60208A6017BFFD8
:100570007A017957120CC9E575240615751575159C
:1005800075A875760008760008F6E575241FF886CC
:100590000308E6FA08E6F9157515751575A875A628
:1005A0000308A60208A6017BFF7A0179DB120CC9B9
:1005B000E5752415F87607E5752415F9C3E7648019
:1005C000948050030206AD120C9EE575240DF8C010
:1005D00000120AE5C004C005C006C0077B00A9756B
:1005E0007A00E5752411F8120AE5120B23A804A974
:1005F00005AA06AB07D007D006D005D004EF6BFFE5
:10060000EE6AFEED69FDEC68FCD000121063E57542
:100610002415F8E625E004FF74017E00A807088091
:1006200005C333CE33CED8F9FFEE547EFEEF54FC33
:100630004E6003121066120C9EE5752411F8C0007E
:10064000120AE5C004C005C006C0077B00A9757A80
:1006500000E575240DF8120AE5120B23A804A9057C
:10066000AA06AB07D007D006D005D004EF6BFFEE8B
:100670006AFEED69FDEC68FCD000121063E575249C
:1006800015F8E625E0FF74017E00A807088005C381
:1006900033CE33CED8F9FFEE547EFEEF54FC4E60DD
:1006A00003121066E5752415F8160205B7E57524E2
:1006B00011F8C000120AE5E575240DF8120AF1EFF1
:1006C0006BFFEE6AFEED69FDEC68FCD000120AFEDD
:1006D000E575240DF8C000120AE5E5752411F8123D
:1006E0000AF1EF6BFFEE6AFEED69FDEC68FCD000ED
:1006F000120AFEE5752411F8C000120AE5E575241A
:100700000DF8120AF1EF6BFFEE6AFEED69FDEC6881
:10071000FCD000120AFEE5752416F8860308E6FAF6
:1007200008E6F9157515751575A875A60308A602CE
:1007300008A601E5752410157515751575A875764B
:0F0740000008760008F67BFF7A017999120CC940
:07074F00E575241FF575227A
:0C138200438920759850758DDDD28E22B5
:08139A008F993099FDC29922E0
:06134D008B6D8A6E896FB2
:10135300E4FDFCAB6DAA6EA96F8D828C83120A71BA
:0D136300FF600A12139A0DBD00010C80E618
:01137000225A
:0713A2003098FDAF99C298DD
:0113A9002221
:06128B00157515751575BF
:10129100A875760008760008764BA87508087401D1
:1012A10026F618E436F61213A2A875860308E6FAA4
:1012B10008E6F9EF120A9EA875860308E6FA08E621
:1012C100F9120A58B40DD3E4120A9EFB7A00794C44
:0712D1000575057505752286
:101325005345544B45590000454E435259505400BE
:1013350044454352595054003031323334353637F1
:0813450038394142434445469A
:1012D800157515751575A875A60308A60208A60143
:1012E8001575A8757606157515751575A87576FFA3
:1012F800087613087625120F78EF60047F018016B0
:10130800120F62EF60047F02800C120F62EF60041C
:0D1318007F0380027F0005750575057522B5
:1010DD00157515751575A875A60308A60208A60140
:0610ED001575157515755F
:1010F300A8750808E4F6A875F6A875E6C394105019
:101103004908E4F6A87508E6FFC39410502DE57569
:101113002403F8860308E6FA08E6F9A875E6F582DB
:10112300758300120A71FEEF90133D93B50606A86E
:101133007508087601A875080680C9A8750808E629
:0C1143007003FF8007A8750680AF7F01D5
:07114F00E5752406F5752289
:100EA500157515751575A875A60308A60208A6017A
:060EB500E57524FCF57553
:100EBB00F80808E4F6E5752403F8E4F6A875F6A837
:100ECB0075E6C394104003020F5B08E4F6A875089F
:100EDB00E6FFC394105039E5752407F8860308E63E
:100EEB00FA08E6F9A875E6F582758300120A71FE19
:100EFB00EF90133D93B50612A8750808C000A90022
:100F0B00A87508E746D000F68006A875080680BDD0
:100F1B00A875E630E0270808E6FFE5752404F88697
:100F2B000308E6FA08E6F9E5752403F8E606F58208
:100F3B00758300EF120AB0A8750808E4F6A87508C7
:100F4B0008C000E6C454F0D000F6A87506020ECA1D
:070F5B00E575240AF575227B
:0A0DE1008B6D8A6E896F8C708D7126
:100DEB00757200757300757408AB720574E574AA9F
:100DFB00737002057314F97430120A9EAB7205748A
:100E0B00E574AA737002057314F97478120A9EE4E0
:100E1B00FFFEC3EF9571E5706480F8EE6480985027
:100E2B0056AB6DAA6EA96F8F828E83120A7154F026
:100E3B00C4540F90133D93FDAB720574E574AA7304
:100E4B007002057314F9ED120A9EAB6DAA6EA96FB1
:100E5B008F828E83120A71540F90133D93FDAB72E8
:100E6B000574E574AA737002057314F9ED120A9EEA
:100E7B000FBF00010E809BAB720574E574AA7370F3
:100E8B0002057314F9740D120A9EAB72AA73A9743E
:090E9B00E4120A9EFB7A007908BA
:010EA400222B
:100F62001575A8757606157515751575A87576FF2C
:100F720008761308762DE5752404F8860308E6FA48
:030F820008E6F985
:100F8500157515751575A875A60308A60208A60199
:020F95001575D0
:100F9700A875E4F6E5752407F9A875E6FFC3975029
:100FA70035E5752404F8860308E6FA08E6F98F8222
:100FB700758300120A71FEA87508860308E6FA0809
:100FC700E6F98F82758300120A716E60047F0080D4
:080FD70007A8750680BE7F012A
:070FDF00E5752408F57522F9
:0300000002138E5A
:0C138E00787FE4F6D8FD758175021371BC
:10096200E709F608DFFA8046E709F208DFFA803E77
:1009720088828C83E709F0A3DFFA8032E309F60864
:10098200DFFA8078E309F208DFFA807088828C83CC
:10099200E309F0A3DFFA806489828A83E0A3F60880
:1009A200DFFA805889828A83E0A3F208DFFA804C5A
:1009B20080D280FA80C680D4806980F28033801031
:1009C20080A680EA809A80A880DA80E280CA80339A
:1009D20089828A83ECFAE493A3C8C582C8CCC58312
:1009E200CCF0A3C8C582C8CCC583CCDFE9DEE780E2
:1009F2000D89828A83E493A3F608DFF9ECFAA9F061
:100A0200EDFB2289828A83ECFAE0A3C8C582C8CCB6
:100A1200C583CCF0A3C8C582C8CCC583CCDFEADECF
:100A2200E880DB89828A83E493A3F208DFF980CC31
:100A320088F0EF60010E4E60C388F0ED2402B4042A
:100A42000050B9F582EB2402B4040050AF232345D1
:060A520082239009B2733B
:100A5800BB010689828A83E0225002E722BBFE029C
:090A6800E32289828A83E49322CF
:100A7100BB010CE58229F582E5833AF583E022503A
:100A810006E92582F8E622BBFE06E92582F8E22284
:0D0A9100E58229F582E5833AF583E493229E
:100A9E00BB010689828A83F0225002F722BBFE0137
:020AAE00F32231
:100AB000F8BB010DE58229F582E5833AF583E8F07C
:100AC000225006E92582C8F622BBFE05E92582C828
:020AD000F22210
:100AD200E8600FEFC333FFEE33FEED33FDEC33FC82
:030AE200D8F12226
:0C0AE500E6FC08E6FD08E6FE08E6FF223D
:0D0AF100E6FB08E6F908E6FA08E6CBF82275
:0C0AFE00ECF608EDF608EEF608EFF62224
:100B0A00D083D082E493F608740193F608740293B2
:090B1A00F608740393F6740473E9
:00000001FF
